:100000000C945D000C9485000C9485000C94850084
:100010000C9485000C9485000C9485000C9485004C
:100020000C9485000C9485000C9485000C9485003C
:100030000C9485000C9485000C9485000C9485002C
:100040000C944B030C9485000C9419030C94F3024C
:100050000C9485000C9485000C9485000C9485000C
:100060000C9485000C94850000000008000201003B
:100070000003040700000000000000000000000072
:10008000250028002B0000000000240027002A0083
:10009000040404040404040402020202020203032E
:1000A0000303030301020408102040800102040836
:1000B0001020010204081020670411241FBECFEF96
:1000C000D8E0DEBFCDBF21E0A4E1B1E001C01D92C8
:1000D000AC3BB207E1F711E0A0E0B1E0ECE6F9E0FB
:1000E00002C005900D92A431B107D9F710E0CDE51B
:1000F000D0E004C02197FE010E94AE04CC35D107A8
:10010000C9F70E9495030C94B4040C94000090E08D
:10011000FC01EC55FF4F249180579F4FFC018491C7
:10012000882399F090E0880F991FFC01EA57FF4F50
:10013000A591B491FC01E458FF4F859194918FB73C
:10014000F894EC91E22BEC938FBF0895AF92BF929D
:10015000CF92DF92EF92FF920F931F93CF93DF9393
:100160006C017B018B01040F151FEB015E01AE18C2
:10017000BF08C017D10759F06991D601ED91FC91E4
:100180000190F081E02DC6010995892B79F7C50111
:10019000DF91CF911F910F91FF90EF90DF90CF9063
:1001A000BF90AF900895FC01538D448D252F30E012
:1001B000842F90E0821B930B541710F0CF96089574
:1001C00001970895FC01918D828D981761F0A28DA1
:1001D000AE0FBF2FB11D5D968C91928D9F5F9F7367
:1001E000928F90E008958FEF9FEF0895FC01918D1D
:1001F000828D981731F0828DE80FF11D858D90E08A
:1002000008958FEF9FEF08952FB7F89480911B0109
:1002100090911C01A0911D01B0911E012FBF8093F0
:10022000270190932801A0932901B0932A018FE11F
:1002300091E00E94F60097FF26C02FB7F8948091B6
:100240001B0190911C01A0911D01B0911E012FBFB7
:1002500040912701509128016091290170912A0154
:10026000841B950BA60BB70B4091230150912401E1
:10027000609125017091260184179507A607B7079D
:10028000B0F28FEF9FEF0895CF92DF92EF92FF923F
:10029000CF930E940401FC0197FD4EC08D32910561
:1002A00021F0C0970A9708F040C0C12CD12C7601EC
:1002B000C0E0E130F105D1F0ED32F105D9F1CF0127
:1002C000C0970A9798F4AAE0B0E0A70196010E94AF
:1002D00094046F01FF0FEE08FF08C60ED71EE81E3C
:1002E000F91E80E3C81AD108E108F1088FE191E016
:1002F0000E94E2000E940401FC01C0970A97C8F224
:10030000E130F105B1F2CC2341F0F094E094D094C7
:10031000C094C11CD11CE11CF11CC701B601CF91D6
:10032000FF90EF90DF90CF9008958FE191E00E94D1
:10033000E200AFCFC1E0DACFC12CD12C7601EDCFF6
:10034000FC01918D228D892F90E0805C9F4F821B54
:1003500091098F73992708958FE191E00E94A00180
:1003600021E0892B09F420E0822F089580E090E0BD
:10037000892B29F00E94AC0181110C940000089592
:10038000FC01A48DA80FB92FB11DA35ABF4F2C910A
:10039000848D90E001968F739927848FA689B78901
:1003A0002C93A089B1898C91837080648C93938DF8
:1003B000848D981306C00288F389E02D80818F7D9B
:1003C00080830895EF92FF920F931F93CF93DF9353
:1003D000EC0181E0888F9B8D8C8D98131AC0E88981
:1003E000F989808185FF15C09FB7F894EE89FF8950
:1003F0006083E889F98980818370806480839FBFEE
:1004000081E090E0DF91CF911F910F91FF90EF90ED
:100410000895F62E0B8D10E00F5F1F4F0F731127FD
:10042000E02E8C8D8E110CC00FB607FCFACFE88938
:10043000F989808185FFF5CFCE010E94C001F1CFFF
:10044000EB8DEC0FFD2FF11DE35AFF4FF0829FB7AC
:10045000F8940B8FEA89FB8980818062CFCFCF939C
:10046000DF93EC01888D8823B9F0AA89BB89E889DC
:10047000F9898C9185FD03C0808186FD0DC00FB682
:1004800007FCF7CF8C9185FFF2CF808185FFEDCF00
:10049000CE010E94C001E9CFDF91CF91089590E095
:1004A000FC01E859FF4F2491FC01EC55FF4F3491BA
:1004B000FC01E057FF4FE491EE23C9F0222339F00D
:1004C000233001F1A8F4213019F1223029F1F0E0B4
:1004D000EE0FFF1FE458FF4FA591B4918FB7F8942A
:1004E000EC91611126C030953E233C938FBF089557
:1004F0002730A9F02830C9F0243049F780918000D6
:100500008F7D03C0809180008F7780938000DFCF44
:1005100084B58F7784BDDBCF84B58F7DFBCF809191
:10052000B0008F778093B000D2CF8091B0008F7DE4
:10053000F9CF3E2BDACF3FB7F89480911501909117
:100540001601A0911701B091180126B5A89B05C00E
:100550002F3F19F00196A11DB11D3FBFBA2FA92F42
:10056000982F8827BC01CD01620F711D811D911D3F
:1005700042E0660F771F881F991F4A95D1F70895AB
:100580008F929F92AF92BF92CF92DF92EF92FF92A3
:100590006B017C010E949B024B015C01C114D104E0
:1005A000E104F104B9F00E949B02681979098A09F3
:1005B0009B09683E73408105910580F321E0C21AD2
:1005C000D108E108F10888EE880E83E0981EA11C8E
:1005D000B11CE4CFFF90EF90DF90CF90BF90AF9031
:1005E0009F908F9008951F920F920FB60F92112433
:1005F0002F933F934F935F936F937F938F939F932B
:10060000AF93BF93EF93FF938FE191E00E94C001FE
:10061000FF91EF91BF91AF919F918F917F916F91DA
:100620005F914F913F912F910F900FBE0F901F90B0
:1006300018951F920F920FB60F9211242F938F933C
:100640009F93EF93FF93E0912F01F0913001808110
:10065000E0913501F091360182FD1BC090818091BF
:1006600038018F5F8F7320913901821741F0E0913B
:100670003801F0E0E15EFE4F958F80933801FF91E5
:10068000EF919F918F912F910F900FBE0F901F9020
:1006900018958081F4CF1F920F920FB60F921124FC
:1006A0002F933F938F939F93AF93BF9380911B01A1
:1006B00090911C01A0911D01B0911E013091140177
:1006C00023E0230F2D3758F50196A11DB11D20936E
:1006D000140180931B0190931C01A0931D01B09302
:1006E0001E018091150190911601A0911701B09102
:1006F00018010196A11DB11D80931501909316015B
:10070000A0931701B0931801BF91AF919F918F9162
:100710003F912F910F900FBE0F901F90189526E8D4
:10072000230F0296A11DB11DD2CF789484B58260AB
:1007300084BD84B5816084BD85B5826085BD85B585
:10074000816085BD80916E00816080936E00109203
:10075000810080918100826080938100809181007E
:10076000816080938100809180008160809380000F
:100770008091B10084608093B1008091B00081606D
:100780008093B00080917A00846080937A00809199
:100790007A00826080937A0080917A0081608093F1
:1007A0007A0080917A00806880937A001092C1006C
:1007B000E0912F01F091300182E08083E0912B01E4
:1007C000F0912C011082E0912D01F0912E018FEC1F
:1007D000808310923701E0913301F091340186E07B
:1007E0008083E0913101F0913201808180618083CA
:1007F000E0913101F0913201808188608083E09145
:100800003101F0913201808180688083E091310173
:10081000F091320180818F7D8083C0E0D0E08FE154
:1008200091E00E94A00118161906D4F48FE191E01E
:100830000E94E200803751F40E944401CB01609392
:100840000001909301010E9487000AC061E081339A
:1008500019F0803371F460E0809100010E944F0232
:100860002097E9F20E94AC018823C9F20E9400009F
:10087000D6CF8236A9F70E94440170931A01609383
:1008800019011091000161E0812F0E944F02C09078
:100890001901D0901A010D2C000CEE08FF08C701B9
:1008A000B6010E94C00260E0812F0E944F02C70182
:1008B000B6010E94C0028FE191E00E94E200823600
:1008C000D1F2803709F4B8CF8F36D9F6C9CFEFE12E
:1008D000F1E01382128288EE93E0A0E0B0E084831E
:1008E0009583A683B78386E091E09183808385EC2E
:1008F00090E09587848784EC90E09787868780ECEA
:1009000090E0918B808B81EC90E0938B828B82ECDA
:1009100090E0958B848B86EC90E0978B868B118E84
:10092000128E138E148E08950E949F04A59F900D21
:10093000B49F900DA49F800D911D11240895A29F36
:10094000B001B39FC001A39F700D811D1124911DA3
:10095000B29F700D811D1124911D0895EE0FFF1F90
:0C0960000590F491E02D0994F894FFCF6D
:10096C00FFFF00000000E201A600D3002F02A0014F
:04097C00E200F6009F
:00000001FF
