:1000000040C064C063C062C061C060C05FC05EC009
:100010005DC0B8C05BC026C357C358C057C056C0E8
:1000200055C054C053C00000000000000000000490
:1000300005070000000000000000000000010204AD
:10004000081020408001020408102001020408105A
:100050002040804004040404040404040202020258
:10006000020203030303030302020300000000383B
:10007000003500320000000000370034003100007D
:10008000920311241FBECFE5D4E0DEBFCDBF10E048
:10009000A0E6B0E0E0EFF9E002C005900D92A437D1
:1000A000B107D9F721E0A4E7B0E001C01D92AC315F
:1000B000B207E1F710E0C1E4D0E003C02197FE01F0
:1000C00083D4C034D107D1F748D490C499CF26E067
:1000D00040E855E260E070E08FE790E06CC28FE7A7
:1000E00090E095D1181619060CF04BC08FE790E000
:1000F000A8D1803769F441E070E060E08FE790E0DC
:10010000CED3CB01609360009093610061E016C193
:1001100061E0813319F0803321F460E08091600068
:1001200049C1823671F541E070E060E08FE790E010
:10013000B6D3709375006093740061E080916000A5
:1001400039D16091740070917500072E000C880BF6
:10015000990B94D060E0809160002CD16091740084
:1001600070917500072E000C880B990B87D08FE7D4
:1001700090E067D18236B9F2803709F4BCCF8F3670
:10018000E1F608951F920F920FB60F9211242F934C
:100190003F938F939F93AF93BF9380917B009091F8
:1001A0007C00A0917D00B0917E0030917A0023E028
:1001B000230F2D3768F126E8230F0296A11DB11DEC
:1001C00020937A0080937B0090937C00A0937D0025
:1001D000B0937E008091760090917700A091780096
:1001E000B09179000196A11DB11D80937600909386
:1001F0007700A0937800B0937900BF91AF919F9161
:100200008F913F912F910F900FBE0F901F901895D7
:100210000196A11DB11DD4CF2FB7F89460917B003A
:1002200070917C0080917D0090917E002FBF089599
:100230003FB7F8948091760090917700A091780074
:10024000B091790022B708B600FE05C02F3F19F023
:100250000196A11DB11D3FBFBA2FA92F982F882746
:10026000BC01CD01620F711D811D911D42E0660F21
:10027000771F881F991F4A95D1F708958F929F92F3
:10028000AF92BF92CF92DF92EF92FF926B017C010F
:10029000CFDF4B015C01C114D104E104F104D9F0BA
:1002A00066D3C6DF681979098A099B09683E7340DD
:1002B0008105910580F321E0C21AD108E108F10817
:1002C00088EE880E83E0981EA11CB11CC114D104D5
:1002D000E104F10431F7FF90EF90DF90CF90BF90F1
:1002E000AF909F908F900895789483B7836083BF79
:1002F00089B7816089BF82E08EBD8EB581608EBD79
:100300008FB581608FBD85B5846085BD85B58064FE
:1003100085BD87E886B91AB80895853041F08730E1
:1003200049F0843051F48FB58F778FBD08958FB524
:100330008F7DFBCF85B58F7D85BD0895CF93DF93EE
:1003400090E0FC01E35CFF4F24918C5A9F4FFC012D
:1003500084918823C9F090E0880F991FFC01EB5825
:10036000FF4FA591B491FC01E559FF4FC591D49180
:1003700061110DC09FB7F8948C91209582238C93C6
:100380008881282328839FBFDF91CF910895623011
:1003900051F49FB7F8943C91822F809583238C93DE
:1003A000E8812E2BEFCF8FB7F894EC912E2B2C9366
:1003B0008FBFEACF1F93CF93DF93282F30E0F9014F
:1003C000EA5DFF4F8491F901E35CFF4FD491F9019D
:1003D000EC5AFF4FC491CC23A1F0162F81119DDF61
:1003E000EC2FF0E0EE0FFF1FE559FF4FA591B49100
:1003F0008FB7F894EC91111108C0D095DE23DC93EF
:100400008FBFDF91CF911F910895DE2BF8CFFC01B4
:10041000918D228D892F90E0805C9F4F821B9109E6
:100420008F7399270895FC01918D828D981731F073
:10043000828DE80FF11D858D90E008958FEF9FEF7D
:100440000895FC01918D828D981761F0A28DAE0FF9
:10045000BF2FB11D5D968C91928D9F5F9F73928F80
:1004600090E008958FEF9FEF0895FC01538D448D28
:10047000252F30E0842F90E0821B930B541710F04F
:10048000CF9608950197089589E893E0892B39F074
:1004900080E090E0892B19F03CD18111B1CD089515
:1004A000FC01A48DA80FB92FB11DA35ABF4F2C91E9
:1004B000848D90E001968F739927848FA689B789E0
:1004C0002C93A089B1898C9182748C93938D848DA7
:1004D000981306C00288F389E02D80818F7D808388
:1004E0000895CF93DF93EC01888D8823B1F0AA891A
:1004F000BB89E889F9898C9185FD03C0808186FDDF
:100500000CC00FB607FCF7CF8C9185FFF2CF80812E
:1005100085FFEDCFCE01C4DFEACFDF91CF91089503
:10052000EF92FF920F931F93CF93DF93EC0181E043
:10053000888F9B8D8C8D981319C0E889F9898081EB
:1005400085FF14C09FB7F894EE89FF896083E8891E
:10055000F9898081827480839FBF81E090E0DF9180
:10056000CF911F910F91FF90EF900895F62E0B8D74
:1005700010E00F5F1F4F0F731127E02E8C8D8E112F
:100580000BC00FB607FCFACFE889F989808185FF97
:10059000F5CFCE0185DFF2CFEB8DEC0FFD2FF11DF6
:1005A000E35AFF4FF0829FB7F8940B8FEA89FB89DB
:1005B00080818062D0CFCF92DF92EF92FF921F9323
:1005C000CF93DF93EC016A017B01122FE889F9894F
:1005D00082E08083C11481EED806E104F10499F031
:1005E00060E079E08DE390E0A7019601C1D1215050
:1005F0003109410951095695479537952795211598
:1006000080E1380790F0E889F989108260E874E8A1
:100610008EE190E0A7019601ABD12150310941094B
:1006200051095695479537952795EC85FD8530837B
:10063000EE85FF852083188E1068EC89FD89108374
:10064000EA89FB89808188698083EA89FB898081C6
:100650008F7D8083DF91CF911F91FF90EF90DF908E
:10066000CF9008951F920F920FB60F9211242F93DF
:100670008F939F93EF93FF93E0918F00F091900001
:100680008081E0919500F091960082FD1BC09081E1
:10069000809198008F5F8F7320919900821741F0AD
:1006A000E0919800F0E0E158FF4F958F809398001B
:1006B000FF91EF919F918F912F910F900FBE0F900F
:1006C0001F9018958081F4CF1F920F920FB60F9252
:1006D00011242F933F934F935F936F937F938F9347
:1006E0009F93AF93BF93EF93FF938FE790E0D8DE94
:1006F000FF91EF91BF91AF919F918F917F916F91FA
:100700005F914F913F912F910F900FBE0F901F90CF
:1007100018958FE790E07BDE21E0892B09F420E03B
:10072000822F0895EFE7F0E01382128288EE93E0C3
:10073000A0E0B0E084839583A683B78386E690E04B
:100740009183808380E490E09587848729E230E07C
:10075000378726872BE230E0318B208B2AE230E08E
:10076000338B228B958B848B8CE290E0978B868BDE
:10077000118E128E138E148E0895AF92BF92CF9267
:10078000DF92EF92FF920F931F93CF93DF936C0151
:100790007B018B01040F151FEB015E01AE18BF0832
:1007A000C017D10759F06991D601ED91FC910190E4
:1007B000F081E02DC6010995892B79F7C501DF91FC
:1007C000CF911F910F91FF90EF90DF90CF90BF904E
:1007D000AF9008950F931F93CF93DF93EC011CDD2F
:1007E000688779878A879B87E881F9810484F58502
:1007F000E02DCE01099597FF14C00EDD08851985FF
:100800002A853B85601B710B820B930B0C811D812C
:100810002E813F81601771078207930728F38FEFBE
:100820009FEFDF91CF911F910F910895FF920F934A
:100830001F93CF93DF93EC018B01F42ECE01CADF1F
:1008400097FD1DC08D329105D1F09C0120533109D7
:100850002A303105A0F0FF2019F08E32910579F091
:100860000130110551F00230110589F48D309105E8
:1008700071F05CF40997029750F08FEF9FEFDF91D2
:10088000CF911F910F91FF9008958097B1F7E88164
:10089000F9810284F385E02DCE010995CFCFBF9277
:1008A000CF92DF92EF92FF920F931F93CF93DF933C
:1008B0008C01C42F40E0BADFFC01C12CD12C7601A1
:1008C00097FD3BC0B12C0C2E000CDD0BCE17DF07C3
:1008D000C9F0ED32F105E9F1CF01C0970A9790F424
:1008E000AAE0B0E0A701960165D06F01FF0FEE0806
:1008F000FF08C60ED71EE81EF91E80E3C81AD108ED
:10090000E108F108D801ED91FC910284F385E02D16
:10091000C8010995C8015EDFFC01C0970A97B0F2D3
:10092000CE17DF0799F2BB2041F0F094E094D09409
:10093000C094C11CD11CE11CF11CC701B601DF91A0
:10094000CF911F910F91FF90EF90DF90CF90BF90CC
:100950000895BB24B394D6CF0895C6DCFDDFB7DB82
:10096000C4E4D2E0BCDB2097E9F38EDDFBCF089531
:10097000A1E21A2EAA1BBB1BFD010DC0AA1FBB1FA3
:10098000EE1FFF1FA217B307E407F50720F0A21B15
:10099000B30BE40BF50B661F771F881F991F1A9482
:1009A00069F760957095809590959B01AC01BD01AC
:1009B000CF0108950FD0A59F900DB49F900DA49FD7
:1009C000800D911D11240895EE0FFF1F0590F491E5
:1009D000E02D0994A29FB001B39FC001A39F01D055
:1009E000B29F700D811D1124911D0895F894FFCFC1
:1009F000FFFF000000009002BD03350271020702F4
:040A000021021302BA
:00000001FF
