:100000000C9462000C948A000C948A000C948A0070
:100010000C948A000C948A000C948A000C948A0038
:100020000C948A000C948A000C948A000C948A0028
:100030000C948A000C948A000C948A000C948A0018
:100040000C94F3000C948A000C9494030C94C60353
:100050000C948A000C948A000C948A000C948A00F8
:100060000C948A000C948A0000000009000302002E
:10007000000405080000000000000000000000016E
:10008000020408102040800102040810200102042C
:100090000810204080400404040404040404020204
:1000A000020202020303030303030202030000002F
:1000B00000250028002B0000000000240027002A53
:1000C0000000F60311241FBECFEFD8E0DEBFCDBF86
:1000D00011E0A0E0B1E0ECEDFAE002C005900D9275
:1000E000A431B107D9F721E0A4E1B1E001C01D922C
:1000F000AC3BB207E1F710E0C2E6D0E004C02197C4
:10010000FE010E945705C136D107C9F70E941A05A2
:100110000C946C050C94000026E040E855E260E089
:1001200070E08FE191E00C943C038FE191E00E943C
:100130006202181619060CF055C08FE191E00E947A
:100140007C02803779F441E070E060E08FE191E07B
:100150000E94B804CB01609300019093010161E01B
:100160000C94F80161E0813319F0803329F460E0E8
:10017000809100010C9434028236A1F541E070E0D8
:1001800060E08FE191E00E94B804709315016093E4
:10019000140161E0809100010E9434026091140119
:1001A00070911501072E000C880B990B0E946E01AF
:1001B00060E0809100010E9434026091140170910E
:1001C0001501072E000C880B990B0E946E018FE120
:1001D00091E00E947C02823689F2803709F4B3CF25
:1001E0008F36B9F608951F920F920FB60F92112411
:1001F0002F933F938F939F93AF93BF9380911B0156
:1002000090911C01A0911D01B0911E0130911A0125
:1002100023E0230F2D3768F126E8230F0296A11D56
:10022000B11D20931A0180931B0190931C01A09390
:100230001D01B0931E018091160190911701A091AC
:100240001801B09119010196A11DB11D80931601ED
:1002500090931701A0931801B0931901BF91AF912A
:100260009F918F913F912F910F900FBE0F901F90F4
:1002700018950196A11DB11DD4CF2FB7F8946091A8
:100280001B0170911C0180911D0190911E012FBFD7
:1002900008953FB7F8948091160190911701A091AD
:1002A0001801B091190126B5A89B05C02F3F19F080
:1002B0000196A11DB11D3FBFBA2FA92F982F8827E6
:1002C000BC01CD01620F711D811D911D42E0660FC1
:1002D000771F881F991F4A95D1F708958F929F9293
:1002E000AF92BF92CF92DF92EF92FF926B017C01AF
:1002F0000E9449014B015C01C114D104E104F104E5
:10030000E9F00E9429050E944901681979098A09C2
:100310009B09683E73408105910570F321E0C21A84
:10032000D108E108F10888EE880E83E0981EA11C30
:10033000B11CC114D104E104F10429F7FF90EF903E
:10034000DF90CF90BF90AF909F908F90089578945A
:1003500084B5836084BD85B5836085BDEEE6F0E03D
:10036000808181608083E1E8F0E082E080838081A9
:1003700081608083E0E8F0E0808181608083E1EB50
:10038000F0E0808184608083E0EBF0E08081816038
:10039000808387E880937A001092C10008958430AA
:1003A00081F028F48230E9F08330F9F00895883044
:1003B00071F0893091F08530B9F4809180008F7DA3
:1003C00003C0809180008F77809380000895809192
:1003D000B0008F778093B00008958091B0008F7D3A
:1003E000F9CF84B58F7784BD089584B58F7DFBCF19
:1003F000CF93DF9390E0FC01E158FF4F24918A56A0
:100400009F4FFC0184918823C9F090E0880F991FC9
:10041000FC01E954FF4FA591B491FC01E355FF4F56
:10042000C591D49161110DC09FB7F8948C9120951E
:1004300082238C938881282328839FBFDF91CF91CB
:100440000895623051F49FB7F8943C91822F8095C3
:1004500083238C93E8812E2BEFCF8FB7F894EC9108
:100460002E2B2C938FBFEACF1F93CF93DF93282F90
:1004700030E0F901E859FF4F8491F901E158FF4F4D
:10048000D491F901EA56FF4FC491CC23A9F0162F5D
:1004900081110E94CF01EC2FF0E0EE0FFF1FE3551A
:1004A000FF4FA591B4918FB7F894EC91111108C04A
:1004B000D095DE23DC938FBFDF91CF911F910895FC
:1004C000DE2BF8CFFC01918D228D892F90E0805C8E
:1004D0009F4F821B91098F7399270895FC01918D7D
:1004E000828D981731F0828DE80FF11D858D90E097
:1004F00008958FEF9FEF0895FC01918D828D9817DD
:1005000061F0A28DAE0FBF2FB11D5D968C91928DC3
:100510009F5F9F73928F90E008958FEF9FEF0895F4
:10052000FC01538D448D252F30E0842F90E0821BF9
:10053000930B541710F0CF960895019708958CEE01
:1005400093E0892B49F080E090E0892B29F00E940C
:10055000EC0381110C9400000895FC01A48DA80FF8
:10056000B92FB11DA35ABF4F2C91848D90E00196F5
:100570008F739927848FA689B7892C93A089B18915
:100580008C91837080648C93938D848D981306C0B6
:100590000288F389E02D80818F7D80830895CF9339
:1005A000DF93EC01888D8823B9F0AA89BB89E8899B
:1005B000F9898C9185FD03C0808186FD0DC00FB641
:1005C00007FCF7CF8C9185FFF2CF808185FFEDCFBF
:1005D000CE010E94AD02E9CFDF91CF910895EF9255
:1005E000FF920F931F93CF93DF93EC0181E0888FED
:1005F0009B8D8C8D98131AC0E889F989808185FFBD
:1006000015C09FB7F894EE89FF896083E889F9895E
:1006100080818370806480839FBF81E090E0DF9160
:10062000CF911F910F91FF90EF900895F62E0B8DB3
:1006300010E00F5F1F4F0F731127E02E8C8D8E116E
:100640000CC00FB607FCFACFE889F989808185FFD5
:10065000F5CFCE010E94AD02F1CFEB8DEC0FFD2F57
:10066000F11DE35AFF4FF0829FB7F8940B8FEA8990
:10067000FB8980818062CFCFCF92DF92EF92FF9291
:100680001F93CF93DF93EC016A017B01122FE8895E
:10069000F98982E08083C11481EED806E104F10477
:1006A000A1F060E079E08DE390E0A70196010E945F
:1006B0002A05215031094109510956954795379529
:1006C0002795211580E1380798F0E889F98910828B
:1006D00060E874E88EE190E0A70196010E942A0587
:1006E000215031094109510956954795379527956C
:1006F000EC85FD853083EE85FF852083188EEC899F
:10070000FD891083EA89FB89808188698083EA8971
:10071000FB8980818F7D8083DF91CF911F91FF9036
:10072000EF90DF90CF9008951F920F920FB60F9227
:1007300011242F938F939F93EF93FF93E0912F01B9
:10074000F09130018081E0913501F091360182FD18
:100750001BC09081809138018F5F8F732091390188
:10076000821741F0E0913801F0E0E15EFE4F958F95
:1007700080933801FF91EF919F918F912F910F906E
:100780000FBE0F901F9018958081F4CF1F920F928B
:100790000FB60F9211242F933F934F935F936F9354
:1007A0007F938F939F93AF93BF93EF93FF938FE1CB
:1007B00091E00E94AD02FF91EF91BF91AF919F91A7
:1007C0008F917F916F915F914F913F912F910F90FA
:1007D0000FBE0F901F9018958FE191E00E9462026A
:1007E00021E0892B09F420E0822F0895EFE1F1E068
:1007F0001382128288EE93E0A0E0B0E084839583B8
:10080000A683B78386E091E09183808385EC90E0B6
:100810009587848784EC90E09787868780EC90E0CA
:10082000918B808B81EC90E0938B828B82EC90E0BB
:10083000958B848B86EC90E0978B868B118E128E35
:10084000138E148E0895AF92BF92CF92DF92EF92E3
:10085000FF920F931F93CF93DF936C017B018B016A
:10086000040F151FEB015E01AE18BF08C017D107BA
:1008700059F06991D601ED91FC910190F081E02D44
:10088000C6010995892B79F7C501DF91CF911F9199
:100890000F91FF90EF90DF90CF90BF90AF900895B1
:1008A0000F931F93CF93DF93EC010E943D01688764
:1008B00079878A879B87E881F9810484F585E02D13
:1008C000CE01099597FF15C00E943D010885198545
:1008D0002A853B85601B710B820B930B0C811D815C
:1008E0002E813F81601771078207930720F38FEFF6
:1008F0009FEFDF91CF911F910F910895FF920F937A
:100900001F93CF93DF93EC018B01F42ECE010E9455
:10091000500497FD1DC08D329105D1F09C012053EC
:1009200031092A303105A0F0FF2019F08E329105EF
:1009300079F00130110551F00230110589F48D3044
:10094000910571F05CF40997029750F08FEF9FEFDB
:10095000DF91CF911F910F91FF9008958097B1F78C
:10096000E881F9810284F385E02DCE010995CECF8F
:10097000BF92CF92DF92EF92FF920F931F93CF938C
:10098000DF938C01C42F40E00E947E04FC01C12C47
:10099000D12C760197FD3EC0B12C0C2E000CDD0B46
:1009A000CE17DF07D9F0ED32F10509F43FC0CF01D2
:1009B000C0970A9798F4AAE0B0E0A70196010E94B8
:1009C0004C056F01FF0FEE08FF08C60ED71EE81E8C
:1009D000F91E80E3C81AD108E108F108D801ED91A9
:1009E000FC910284F385E02DC8010995C8010E949D
:1009F0005004FC01C0970A9798F2CE17DF0781F2E6
:100A0000BB2041F0F094E094D094C094C11CD11C60
:100A1000E11CF11CC701B601DF91CF911F910F912D
:100A2000FF90EF90DF90CF90BF900895BB24B394D8
:100A3000D5CF08950E94A7010E9419050E948C003D
:100A4000CFE9D2E00E9495002097E1F30E949F0237
:100A5000F9CF0895A1E21A2EAA1BBB1BFD010DC000
:100A6000AA1FBB1FEE1FFF1FA217B307E407F5075E
:100A700020F0A21BB30BE40BF50B661F771F881F3A
:100A8000991F1A9469F760957095809590959B01D0
:100A9000AC01BD01CF0108950E945D05A59F900D99
:100AA000B49F900DA49F800D911D11240895EE0F09
:100AB000FF1F0590F491E02D0994A29FB001B39F10
:100AC000C001A39F700D811D1124911DB29F700D57
:0C0AD000811D1124911D0895F894FFCFA2
:100ADC00FFFF00000000EF0223049002CF0262022D
:040AEC007C026E0218
:00000001FF
