:100000000C9421010C9449010C9449010C94490170
:100010000C9449010C9449010C9449010C94490138
:100020000C9449010C9449010C9449010C94490128
:100030000C9449010C9449010C9449010C94490118
:100040000C9414100C9449010C94E20F0C94BC0F06
:100050000C9449010C9449010C9449010C944901F8
:100060000C945E100C94490107634236B79BD8A7E5
:100070001A39685618AEBAAB558C1D3CB7CC5763CD
:10008000BD6DEDFD753EF6177231BF000000803F7B
:1000900008000000BE922449123EABAAAA2ABECD97
:1000A000CCCC4C3E00000080BEABAAAAAA3E000009
:1000B0000000BF000000803F000000000008417801
:1000C000D3BB4387D1133D190E3CC3BD4282AD2B38
:1000D0003E68EC8276BED98FE1A93E4C80EFFFBE30
:1000E00001C4FF7F3F000000000000407A10F35A77
:1000F00000A0724E18090010A5D4E80000E8764868
:10010000170000E40B54020000CA9A3B000000E113
:10011000F505000080969800000040420F000000A6
:10012000A08601000000102700000000E803000086
:1001300000006400000000000A0000000000010050
:10014000000000002C76D888DC674F0823DFC1DF71
:10015000AE59E1B1B796E5E3E453C63AE651997674
:1001600096E8E6C28426EB898C9B62ED407C6FFCAE
:10017000EFBC9C9F40F2BAA56FA5F490055A2AF7F0
:100180005C936B6CF9676DC11BFCE0E40D47FEF5F9
:1001900020E6B500D0ED902E030094357705008061
:1001A000841E080000204E0A000000C80C333333C0
:1001B000330F986E12831141EF8D2114893BE65560
:1001C00016CFFEE6DB18D1844B381BF77C1D901D43
:1001D000A4BBE424203284725E228100C9F124ECA5
:1001E000A1E53D2700000000250028002B000000AD
:1001F00000080002010000030407000000000000E6
:10020000000000000000240027002A000000000079
:100210002300260029000404040404040404020248
:100220000202020203030303030301020408102075
:1002300040800102040810200102040810207D11F2
:10024000F71711241FBECFEFD8E0DEBFCDBF11E0FE
:10025000A0E0B1E0ECEDF5E402C005900D92A83B02
:10026000B107D9F723E0A8EBB1E001C01D92A53793
:10027000B207E1F711E0C0E2D1E004C02197FE012E
:100280000E94DA20CF31D107C9F70E941C120C94CA
:10029000E1220C94000008950895CF92DF92EF922E
:1002A000FF92CF93DF93B0912003A0E08111AB2F99
:1002B0008091210390E0880F991FAC01445F5D4F4E
:1002C000C0902603D0902703E0902803F0902903E4
:1002D00030E020E0FA01C591D491E881B90190E0C5
:1002E00080E0EB23EA130AC02F5F3F4F6C157D05BA
:1002F0008E059F0578F36FEF7FEFCB01DF91CF91F4
:10030000FF90EF90DF90CF9008958230910538F004
:10031000880F991F880F991F05970197F1F7089586
:10032000AF92BF92CF92DF92EF92FF920F931F9303
:10033000CF93DF936C017B018B01040F151FEB0141
:100340005E01AE18BF08C017D10759F06991D601F8
:10035000ED91FC910190F081E02DC6010995892B6A
:1003600079F7C501DF91CF911F910F91FF90EF9029
:10037000DF90CF90BF90AF900895FC01538D448DD6
:10038000252F30E0842F90E0821B930B541710F040
:10039000CF96089501970895FC01918D828D98174D
:1003A00061F0A28DAE0FBF2FB11D5D968C91928D25
:1003B0009F5F9F73928F90E008958FEF9FEF089556
:1003C000FC01918D828D981731F0828DE80FF11D1F
:1003D000858D90E008958FEF9FEF0895FC01918D3A
:1003E000228D892F90E0805C9F4F821B91098F7333
:1003F000992708958CE792E00E94EE0121E0892B75
:1004000009F420E0822F089580E090E0892B29F004
:100410000E94FA0181110C9400000895FC01A48D42
:10042000A80FB92FB11DA35ABF4F2C91848D90E016
:1004300001968F739927848FA689B7892C93A089F9
:10044000B1898C91837080648C93938D848D981383
:1004500006C00288F389E02D80818F7D8083089516
:10046000EF92FF920F931F93CF93DF93EC0181E004
:10047000888F9B8D8C8D98131AC0E889F9898081AB
:1004800085FF15C09FB7F894EE89FF896083E889DE
:10049000F98980818370806480839FBF81E090E0D0
:1004A000DF91CF911F910F91FF90EF900895F62E5D
:1004B0000B8D10E00F5F1F4F0F731127E02E8C8DF7
:1004C0008E110CC00FB607FCFACFE889F98980813C
:1004D00085FFF5CFCE010E940E02F1CFEB8DEC0F20
:1004E000FD2FF11DE35AFF4FF0829FB7F8940B8F59
:1004F000EA89FB8980818062CFCFCF93DF93EC01C3
:10050000888D8823B9F0AA89BB89E889F9898C91FB
:1005100085FD03C0808186FD0DC00FB607FCF7CFB7
:100520008C9185FFF2CF808185FFEDCFCE010E94B7
:100530000E02E9CFDF91CF91089590E0FC01E251E6
:10054000FE4F2491FC01E65DFD4F3491FC01EA5E13
:10055000FD4FE491EE23C9F0222339F0233001F15D
:10056000A8F4213019F1223029F1F0E0EE0FFF1F3D
:10057000EC51FE4FA591B4918FB7F894EC916111B5
:1005800026C030953E233C938FBF08952730A9F0B5
:100590002830C9F0243049F7809180008F7D03C056
:1005A000809180008F7780938000DFCF84B58F7734
:1005B00084BDDBCF84B58F7DFBCF8091B0008F777A
:1005C0008093B000D2CF8091B0008F7DF9CF3E2BC9
:1005D000DACFCF93DF9390E0FC01E65DFD4F2491ED
:1005E0008A5E9D4FFC0184918823C9F090E0880FBA
:1005F000991FFC01EE5FFD4FA591B491FC01EC51F8
:10060000FE4FC591D49161110DC09FB7F8948C91A4
:10061000209582238C938881282328839FBFDF9194
:10062000CF910895623051F49FB7F8943C91822F96
:10063000809583238C93E8812E2BEFCF8FB7F8948E
:10064000EC912E2B2C938FBFEACF3FB7F89480917B
:10065000FD019091FE01A091FF01B091000226B52D
:10066000A89B05C02F3F19F00196A11DB11D3FBFEA
:10067000BA2FA92F982F8827BC01CD01620F711DB9
:10068000811D911D42E0660F771F881F991F4A95B3
:10069000D1F708958F929F92AF92BF92CF92DF923F
:1006A000EF92FF924B015C010E9425036B017C01DC
:1006B0000E9425036C197D098E099F09683E7340CD
:1006C00081059105A8F321E0821A9108A108B108DB
:1006D00088EEC80E83E0D81EE11CF11C8114910441
:1006E000A104B10429F7FF90EF90DF90CF90BF9065
:1006F000AF909F908F900895FC0183858F3F19F0F4
:1007000061E00C949D020895FC0180819181892B08
:1007100039F0A281B3819C9111968C919CBD8DBDC5
:1007200083858F3F19F060E00C949D020895AF928D
:10073000BF92CF92DF92EF92FF920F931F93CF93CE
:10074000DF93EC0188819981892B89F06EBD0DB40E
:1007500007FEFDCFBEB48B2DDF91CF911F910F917E
:10076000FF90EF90DF90CF90BF90AF900895888575
:10077000998511E0892B09F010E8AA24A394862F0B
:10078000812309F0A12C062F2C813D814E815F81B0
:1007900060E271EA87E090E00E94461CF22EB02EE3
:1007A000E12CC22ED12CFF2019F0C6010E94850138
:1007B0008A85877F09F042C08D858F3F89F0902F11
:1007C000912381E009F480E08A1551F0EF85F889E2
:1007D0008F89992369F19081892B8083AA24A3941E
:1007E000E989FA898081998D892B8083FF2019F00E
:1007F000C6010E9485018E858F3F39F0EB89FC8907
:100800008081988D892309F0E12AE989FA8990810C
:10081000898D8095892380838E858F3F09F0BE2C3A
:1008200088859985892BB9F5110F1111BCCF93CF0C
:100830009081809589238083A12CD2CFE989FA8980
:100840008081998D892B8083FF2019F0C6010E9439
:1008500085018D858F3F49F0EF85F8898F89902F2D
:100860009123A9F09081892B8083E989FA8990816D
:10087000898D8095892380838E858F3F69F2EB89EE
:10088000FC898081988D892339F2E12AC5CF908136
:1008900080958923E9CF1695C8CFCF92DF92EF924A
:1008A000FF920F931F93CF93DF938C01EB016A01AB
:1008B00079010E9484036881C8010E949703E601C0
:1008C000EC0CFD1C6FEFC8010E9497038993CE15B5
:1008D000DF05C1F7C8010E947C0381E0DF91CF9161
:1008E0001F910F91FF90EF90DF90CF9008950895A2
:1008F00008952091D901260F3327331F2132310566
:10090000ECF420915202FC0190E080E0243069F088
:1009100082E00895A091D9012191AC0147545E4F26
:10092000A40FB52FB11D2C930196861798F38091D3
:10093000D901680F6093D90180E0089581E008959E
:100940001092520281E08093510210922C0261E0D9
:1009500082E10E949D0261E083E10E949D02E9EB39
:10096000F0E080818E7F808380818D7F808388E42A
:100970008093B80085E48093BC00089510920B0228
:1009800010920A021092590210927B020E94A00457
:100990008BE491E090930902809308028CE491E04B
:1009A00090930702809306020895CF93DF9391E01E
:1009B0009093B8018823B9F0C091B800D091BA00E3
:1009C0008091BC008A7B8093BC0060E082E10E9441
:1009D0009D0260E083E10E949D020E94A004D093EA
:1009E000BA00C093B800DF91CF9108958F929F9283
:1009F000AF92BF92CF92DF92EF92FF920F931F932D
:100A0000CF93DF93D0917B02D13208F0D7C0182F5B
:100A1000C0917A020E9425036B017C0180915202F1
:100A200081116BC082E080935202109351028FEFCC
:100A30008093500210924F02D0934E02AAE5B2E08A
:100A4000EEE2F2E080E0D81391C010922D02809186
:100A50002D02CC0FC82BC0932D0280912C02813027
:100A600009F088C010922C020E9425036B017C01C2
:100A700080912D028093BB00809154029091550289
:100A8000A0915602B0915702892B8A2B8B2BA1F093
:100A90000E942503009154021091550220915602A4
:100AA000309157026C197D098E099F0906171707A7
:100AB0002807390708F442C08091BC0083FDD8CFD5
:100AC00085EC8093BC000E9425036B017C01809122
:100AD0005202823009F450C0809150028F3F09F4D5
:100AE0006FC080915002803209F46CC08091500236
:100AF000803309F469C084E026C08091540290914B
:100B00005502A0915602B0915702892B8A2B8B2B4C
:100B100009F484CF0E9425038090540290905502DE
:100B2000A0905602B09057026C197D098E099F095A
:100B300086169706A806B90608F070CF8091530272
:100B40000E94D50485E01092590210927B02109207
:100B50005802DF91CF911F910F91FF90EF90DF909E
:100B6000CF90BF90AF909F908F9008959D9191935B
:100B70008F5F69CF85EEA5CF809154029091550289
:100B8000A0915602B0915702892B8A2B8B2B09F426
:100B90009ECF0E942503009154021091550220918E
:100BA0005602309157026C197D098E099F0906176C
:100BB00017072807390708F08ACFC0CF81E0C3CFD5
:100BC00080E0C1CF82E0BFCF83E0BDCF1F93CF9342
:100BD000DF93EA01122FDC0111968D919C91DC01CB
:100BE000ED91FC910280F381E02D0995C817D9079A
:100BF00029F4812F0E94F60491E0811190E0892F61
:100C0000DF91CF911F910895CF93DF93EC018B81FA
:100C10008823A1F0888191E09093580280937A0212
:100C20001092590210927B0281E00E94F60491E03A
:100C3000811190E0892FDF91CF9108950E94BE0429
:100C400081E08B83CE010E940406982F8111E2CFB0
:100C5000F1CF0895E0910B0280910A02E81730F479
:100C6000F0E0E45FFD4F808190E008958FEF9FEF0B
:100C7000089590910B0280910A022FEF3FEF981791
:100C800048F4E92FF0E0E45FFD4F208130E09F5F02
:100C900090930B02C901089580910A0290910B0272
:100CA000891B990B0895CF92DF92EF92FF920F93D9
:100CB0001F93CF93DF937C01CB018A0120915802CF
:100CC000222389F0EB016B01C40ED51ECC15DD0586
:100CD00069F06991D701ED91FC910190F081E02DCF
:100CE000C7010995F3CF642F0E947904C801DF91F1
:100CF000CF911F910F91FF90EF90DF90CF900895CB
:100D0000CF93DF931F92CDB7DEB76983209158024E
:100D10002223F9F020917B02203258F021E030E0CC
:100D2000FC013383228390E080E00F90DF91CF912C
:100D3000089580915902E82FF0E0E65AFD4F99811D
:100D400090838F5F8093590280937B0281E090E0D3
:100D5000ECCF61E0CE0101960E947904F7CFFC014F
:100D6000248131E03093580220937A021092590284
:100D700010927B028385682B8CE293E00E948006B0
:100D800081E00C94F60490E080E0089508950F93BC
:100D90001F93CF93DF9300D0CDB7DEB76A83E09186
:100DA0003A03F0913B033097F9F089838481958170
:100DB000029798F0808191E09093580280937A0294
:100DC0001092590210927B0221E042E050E0BE01F5
:100DD0006F5F7F4FCF010E94E6050F900F90DF916C
:100DE000CF911F910F9108958F77898300913C03D4
:100DF00010913D03C8010E9484036981C8010E94CB
:100E000097036A81C8010E949703C8010E947C036E
:100E1000E4CFCF93DF93C4E6D3E08770886E8883F6
:100E2000E3E6F3E0962F9770990F990F990F808161
:100E3000807C242F2770892B822B808395E0440FA0
:100E4000551F9A95E1F787FB882780F9482B660F95
:100E5000771F660F771F642B85EF0E94C706888176
:100E6000682F677090E2699FB0011124282F2695A2
:100E700026952695277094E0299F90011124622BD6
:100E80008295869586958370682B84EFDF91CF914C
:100E90000C94C7062F923F924F925F926F927F926F
:100EA0008F929F92AF92BF92CF92DF92EF92FF927A
:100EB0000F931F93CF93DF93DC011496ED91FC9178
:100EC0001597EF2B09F425C169012A01EC018881EE
:100ED00091E09093580280937A02109259021092F6
:100EE0007B0220E041E050E0CD010E94E605782E33
:100EF000882309F40EC1F12CE12C332433948C8126
:100F00009D8186010E191F098017910708F48C0135
:100F100028800E9425034B015C01809152028111BF
:100F200073C0602EB0E2B01710F480E2682E3092E9
:100F3000520221E0C601801B910BE816F90608F465
:100F400020E020935102EFEFE093500210924F0205
:100F50008FEF860D80934E0230922D0280912D02EC
:100F6000220C282A20922D0280912C02813009F037
:100F700090C010922C020E9425034B015C018091CD
:100F80002D028093BB008091540290915502A09154
:100F90005602B0915702892B8A2B8B2BA1F00E940D
:100FA00025032091540230915502409156025091F0
:100FB0005702681979098A099B09261737074807D4
:100FC000590708F442C08091BC0083FDD8CFF5ECEE
:100FD000F093BC000E9425034B015C0180915202FA
:100FE000813009F45AC080914F02861510F4609048
:100FF0004F02AEE2B2E0ECE0F2E080E0861551F1A3
:101000009D9191938F5FFACF8091540290915502F8
:10101000A0915602B0915702892B8A2B8B2B09F491
:101020007CCF0E94250320915402309155024091BB
:10103000560250915702681979098A099B092617A7
:1010400037074807590708F068CF809153020E947C
:10105000D504612C10920B0260920A0260161106F0
:1010600009F057C042018E0C9F1C5401C50188191C
:1010700099098017910798F589819A81DC01ED9192
:10108000FC910284F385E02D0995F50181935F01C0
:10109000EDCF85EE8093BC009DCF8091540290915E
:1010A0005502A0915602B0915702892B8A2B8B2BA7
:1010B00009F494CF0E9425032091540230915502E7
:1010C0004091560250915702681979098A099B0983
:1010D000261737074807590708F080CFB6CFE00E2C
:1010E000F11EEC14FD0408F40ACF872DDF91CF9197
:1010F0001F910F91FF90EF90DF90CF90BF90AF9036
:101100009F908F907F906F905F904F903F902F9027
:101110000895712CEACFCF93DF9300D0CDB7DEB71F
:10112000E0913A03F0913B03898322E030E0AE0185
:101130004F5F5F4FBA01309751F0CF010E944A07CD
:1011400089819A810F900F90DF91CF9108958091BE
:101150003C0390913D030E944D04F2CFCF93DF9367
:1011600000D01F92CDB7DEB7FC01828193816983E5
:1011700023E030E0AE014F5F5F4FBA010097A1F06E
:101180000E944A0729816A8170E090E080E0982FF0
:10119000872F762F6627822B2B81622B0F900F9043
:1011A0000F90DF91CF910895848195810E944D0425
:1011B000E9CF8F929F92AF92BF92CF92DF92EF9240
:1011C000FF920F931F93CF93DF93EC016AEF0E947E
:1011D000AE080B891C8930E020E0C72ED82EE92EFE
:1011E000FF24E7FCFA94C01AD10AE20AF30A57E096
:1011F00095958795779567955A95D1F7000F111FAB
:10120000221F331F4B015C01801A910AA20AB30A04
:10121000A5019401AD89BE890E94071C4B015C01A8
:10122000FBE0B594A79497948794FA95D1F7A7011A
:101230009601C701B6010E946F1F9B01AC01ACE093
:101240005595479537952795AA95D1F7AF89B88DCC
:101250000E94071C9B01AC01BEE055954795379550
:101260002795BA95D1F7280D391D4A1D5B1D2F878B
:10127000388B498B5A8BA5E0B0E00E94FC1B60586C
:101280007F4F8F4F9F4F672F782F892F992787FD8B
:101290009A950E94C01A20E030E048EC52E40E9487
:1012A000E41CDF91CF911F910F91FF90EF90DF90A1
:1012B000CF90BF90AF909F908F9008952F923F92C4
:1012C0004F925F926F927F928F929F92AF92BF9256
:1012D000CF92DF92EF92FF920F931F93CF93DF9302
:1012E000CDB7DEB76D970FB6F894DEBF0FBECDBF9A
:1012F0009D8F8C8FFC0183859485A585B685892B70
:101300008A2B8B2B19F0CF010E94D90867EF8C8DA7
:101310009D8D0E94AE08688F798F8A8F9B8FEC8D90
:10132000FD8D87859089A189B2896C017D01FF0CB3
:10133000CC08DC2C76019C01AD016C2D7C2D8C2D14
:101340009C2D345F4140510961097109810991095E
:1013500029873A874B875C873B014C0159016A0119
:101360007B018C010E948E1F322E232E4A8B5B8BB9
:101370006C8B7D8B8E8B9F8BAC8DBD8D5C963C91E9
:101380005C975B962C91932F990F990B492F592FAE
:10139000692F792F892F0E948E1F0CE00E948620D2
:1013A000522E39834D875E876F87788B898B492EC4
:1013B000EC8DFD8D368D258D932F990F990BA32CD8
:1013C000B22CCA88DB88EC88FD880E891F89492FDA
:1013D000592F692F792F892F0E948E1F08E00E94B4
:1013E0009F20A52CB980CD84DE84EF84F8880989FC
:1013F000142D0E94BC2070588F4F9F4FAC8DBD8D17
:101400005996ED91FC915F01D12CC12CE12CF12C6E
:101410008701E983BA82CB82DC82ED82FE820F8370
:101420001887C12CD12CE12CF12C00E010E00E9497
:101430008E1F01E20E949F202983532E4D875E87D5
:101440006F87788B898B492EA0E00E94CE2009F40B
:101450003DC1AC8DBD8D94963C91949793962C9103
:10146000932F990F990BA32CB22CCA88DB88EC8898
:10147000FD880E891F89492F592F692F792F892FB0
:101480000E948E1F19014A8B5B8B6C8B7D8B8E8B20
:101490009F8BEC8DFD8D32A121A1932F990F990B7C
:1014A000A984BA84CB84DC8473018401492F592F29
:1014B000692F792F892F0E948E1F01E10E948620BB
:1014C0005101CA88DB88EC88FD880E891F890E943B
:1014D000BC2059016A017B01282E192F488D598D96
:1014E0006A8D7B8D84E075956795579547958A95AC
:1014F000D1F780E090E0A0E1B0E0841B950BA60B53
:10150000B70B3C014D01990C6608762C43019C01F8
:10151000AD01662D762D862D962D0FE10E94862039
:10152000722E832E942E652EB62FA72F382E9987D4
:10153000EC8DFD8D30A1278D932F990F990B492F9D
:10154000592F692F792F892F03E20E948620022DBF
:101550000E94BC2059016A017B018C01272D382D86
:10156000492D562D6B2F7A2F832D99850E94C520EA
:10157000E5E3AE2EFCE0BF2EC12CD12CE12CF12CEA
:1015800000E010E00E948E1FA980B52CCD84DE847F
:10159000EF84F8880989142D0E94E81F29873A876B
:1015A0004B875C8769837D878E879F870DE00E94CC
:1015B0009F20922E832E742E652E562E472E382E67
:1015C000292EAC8DBD8D9A963C919A9799962C9127
:1015D000932F990F990BA92CB82CC72CD62CE52C3E
:1015E000F42C032D122D492F592F692F792F892F74
:1015F0000E948E1F0E948E1F09E10E949F20A984D5
:10160000BA84CB84DC84E980FD840E851F850E942A
:10161000BC2019012A013B014C01EC8DFD8D30A548
:1016200027A1932F990F990B492F592F692F792FA4
:10163000892F0E948E1F03E10E949F2059016A0199
:101640007B018C019101A201B301C4010E94BC2065
:1016500008E00E949F2059016A017B01E82F192FA1
:10166000AC8DBD8D96963C91969795962C91932F27
:10167000990F990B492F592F692F792F892F04E042
:101680000E9486200E2F0E94BC200E94C61D20E0D2
:1016900030E040E85BE30E941F1B6D960FB6F894A4
:1016A000DEBF0FBECDBFDF91CF911F910F91FF9095
:1016B000EF90DF90CF90BF90AF909F908F907F90F2
:1016C0006F905F904F903F902F90089560E070E092
:1016D000CB01E3CF0F931F93CF938C01C62F0E94B2
:1016E000AF066C2F6460C8010E94AF066C2F6B7F41
:1016F000C8010E94AF0683EC90E00197F1F7CF910B
:101700001F910F9108950F931F93CF93DF938C0137
:10171000D62FC42F607F642B0E946A0B80E1D89F74
:10172000B00111246C2BC801DF91CF911F910F9153
:101730000C946A0BCF93DF93CDB7DEB728970FB623
:10174000F894DEBF0FBECDBF98E0E6E0F1E0DE0129
:10175000119601900D929A95E1F790916D0396176D
:1017600010F46FEF690F262F30E0220F331F41E096
:1017700050E04C0F5D1F240F351FF9016081680F89
:10178000606840E085E693E028960FB6F894DEBFE7
:101790000FBECDBFDF91CF910C94830B41E00E942F
:1017A000830B81E090E00895FB0101900020E9F7B0
:1017B0003197AF01461B570BDC01ED91FC91028084
:1017C000F381E02D09948F929F92AF92BF920F9375
:1017D0001F93CF93DF93CDB7DEB7A1970FB6F894E1
:1017E000DEBF0FBECDBF19A2423008F44AE08E0121
:1017F0000F5D1F4F842E912CB12CA12CA5019401BB
:101800000E94461CE62FB901CA01EA3004F5E05DEA
:10181000D801EE938D01232B242B252B79F790E013
:1018200080E0109729F0BD0185E693E00E94D40B7B
:10183000A1960FB6F894DEBF0FBECDBFDF91CF915A
:101840001F910F91BF90AF909F908F900895E95C8A
:10185000DFCFBC0185E693E00C94D40B4F925F92EE
:101860006F927F928F929F92AF92BF92CF92DF92B0
:10187000EF92FF920F931F93CF936B017C01742E15
:10188000AC019B010E940C1F6AE571E0811126C02A
:1018900046015701E894B7F82FEF3FEF4FE75FE7B6
:1018A000C501B4010E940C1F81110CC02FEF3FEF46
:1018B0004FE75FE7C501B4010E94B91A6EE571E018
:1018C000181664F02FEF3FEF4FE75FE4C701B60152
:1018D0000E94411E1816ACF462E671E085E693E0C2
:1018E000CF911F910F91FF90EF90DF90CF90BF901D
:1018F000AF909F908F907F906F905F904F900C94DF
:10190000D40B2FEF3FEF4FE75FECC701B6010E940A
:10191000B91A87FDE1CF20E030E0A901C701B60187
:101920000E94B91A10E000E087FF0CC041E06DE2B0
:1019300085E693E00E94830BF7FAF094F7F8F094B1
:1019400001E010E0C0E060E070E080E09FE37C1622
:1019500041F020E030E040E251E40E94E41CCF5F1F
:10196000F6CFA70196010E94781C4B015C010E94F2
:10197000971D2B013C014AE00E94E30B080F191F41
:10198000CC23C9F1C301B2010E94BE1A9B01AC0174
:10199000C501B4010E94771C4B015C0141E06EE27D
:1019A00085E693E00E94830B0F5F1F4FC15018F133
:1019B00020E030E040E251E4C501B4010E941F1B69
:1019C0002B013C010E94971D4B01B12CA12C4AE038
:1019D000C501B4010E94E30B080F191FC501B40132
:1019E0000E94BE1A9B01AC01C301B2010E94771C88
:1019F0004B015C01DBCFC801CF911F910F91FF908C
:101A0000EF90DF90CF90BF90AF909F908F907F909E
:101A10006F905F904F900895CF93DF93FC014481C6
:101A20005581608171818CE792E00E949001EC0108
:101A300066E671E08CE792E00E94D40B8C0F9D1F4C
:101A4000DF91CF910895CF93DF93EC018881998145
:101A5000009711F00E947C21198218821D821C823D
:101A60001B821A82DF91CF910895FC0180819181C0
:101A7000009711F00C947C2108950C947C210C9417
:101A80007C210F931F93CF93DF93EC018881998181
:101A9000009759F02A813B812617370730F081E003
:101AA000DF91CF911F910F9108958B016F5F7F4F51
:101AB0000E940522009759F0998388831B830A832B
:101AC0002C813D81232B59F7FC011082E8CF80E067
:101AD000E7CFEF92FF920F931F93CF93DF93EC0129
:101AE000FB01E080F180E114F10411F10481158122
:101AF00001151105A9F08C819D81080F191FB801EE
:101B0000CE010E94410D882399F0288139818C8172
:101B10009D81B701820F931F0E94CB221D830C83EE
:101B2000CE01DF91CF911F910F91FF90EF9008951B
:101B3000CE010E94230DF4CFEF92FF920F931F93DB
:101B4000CF93DF93EC017B018A01BA010E94410D22
:101B500081110BC0CE010E94230DCE01DF91CF91E8
:101B60001F910F91FF90EF9008951D830C83B70193
:101B7000888199810E94CB22F0CFEF92FF920F9340
:101B80001F93CF93DF93CDB7DEB7A1970FB6F8942D
:101B9000DEBF0FBECDBF7C01CB01BA01F7011182C0
:101BA000108213821282158214828E010F5F1F4FE2
:101BB00022E044E00E942F180097C9F0FC01019038
:101BC0000020E9F73197AF01481B590BBC01C70151
:101BD0000E949C0DA1960FB6F894DEBF0FBECDBF3C
:101BE000DF91CF911F910F91FF90EF900895C70162
:101BF0000E94230DEFCFEF92FF920F931F93CF938D
:101C0000DF93CDB7DEB762970FB6F894DEBF0FBE95
:101C1000CDBF8C01CB01F801118210821382128298
:101C2000158214824AE09E012F5F3F4F7901B9016E
:101C30000E944D18F70101900020E9F73197AF019C
:101C40004E195F09B701C8010E949C0D62960FB63C
:101C5000F894DEBF0FBECDBFDF91CF911F910F91E2
:101C6000FF90EF900895FC0111821082138212827E
:101C700015821482FB0101900020E9F73197AF0132
:101C8000461B570B0C949C0DCF93DF93EB01FB018C
:101C9000349620E2DF011D922A95E9F744E250E0F4
:101CA00060E070E0488359836A837B83FC01428152
:101CB0005381052E000C660B770B4C835D836E837E
:101CC0007F8346E050E060E070E0488759876A878C
:101CD0007B872FB7F89440910202509103026091E4
:101CE0000402709105022FBF488B598B6A8B7B8B46
:101CF00084819581FC014385548565857685452BD6
:101D0000462B472B81F00E945E0920E030E048EC32
:101D100052E40E94E41C6C8B7D8B8E8B9F8B81E048
:101D2000DF91CF91089560E070E080EC9FE7EDCF08
:101D3000CF93DF93EB01FB01349620E2DF011D928C
:101D40002A95E9F744E250E060E070E04883598367
:101D50006A837B83FC0142815381052E000C660B54
:101D6000770B4C835D836E837F834DE050E060E0B2
:101D700070E0488759876A877B872FB7F89440912E
:101D800002025091030260910402709105022FBF7C
:101D9000488B598B6A8B7B8B84819581FC014385B1
:101DA000548565857685452B462B472B51F00E943F
:101DB000D9086C8B7D8B8E8B9F8B81E0DF91CF91CF
:101DC000089560E070E080EC9FE7F3CF0F931F93DE
:101DD000CF93DF938C01EB0188E2FB0111928A958E
:101DE000E9F74BE050E069E671E0CE010E94D222B3
:101DF0001B8681E090E0A0E0B0E08C879D87AE87F5
:101E0000BF87F80182819381092E000CAA0BBB0BBE
:101E1000888B998BAA8BBB8B86E090E0A0E0B0E02A
:101E20008C8B9D8BAE8BBF8B1CA21DA21EA21FA2F2
:101E300080E090E0A6E9B3E48C8F9D8FAE8FBF8FDA
:101E400080E090E8A9E8B4E4888F998FAA8FBB8FCF
:101E500086EA9BE9A4E4BCE388A399A3AAA3BBA355
:101E6000DF91CF911F910F9108950F931F93CF93FF
:101E7000DF938C01EB0188E2FB0111928A95E9F76F
:101E80004BE050E069E671E0CE010E94D2221B8651
:101E900081E090E0A0E0B0E08C879D87AE87BF87AF
:101EA000F80182819381092E000CAA0BBB0B888B51
:101EB000998BAA8BBB8B8DE090E0A0E0B0E08C8B7F
:101EC0009D8BAE8BBF8B1CA21DA21EA21FA280E009
:101ED00090E0A0E2B2EC8C8F9D8FAE8FBF8F80E040
:101EE00090E0AAEAB2E4888F998FAA8FBB8F8AE02C
:101EF00097EDA3E2BCE388A399A3AAA3BBA3DF91B8
:101F0000CF911F910F91089585ED8093BC00809132
:101F1000540290915502A0915602B0915702079633
:101F2000A11DB11D23E0B695A795979587952A9594
:101F3000D1F72091BC0024FD03C0109252020895F5
:101F4000409154025091550260915602709157028F
:101F5000452B462B472B69F30097A105B10541F0AE
:101F60002AE22A95F1F700C00197A109B109E1CF52
:101F7000809153020C94D5041F920F920FB60F92CA
:101F800011242F933F934F935F936F937F938F937E
:101F90009F93AF93BF93EF93FF938CE792E00E94E0
:101FA0000E02FF91EF91BF91AF919F918F917F9121
:101FB0006F915F914F913F912F910F900FBE0F90B6
:101FC0001F9018951F920F920FB60F9211242F9306
:101FD0008F939F93EF93FF93E0918C02F0918D028A
:101FE0008081E0919202F091930282FD1BC090816A
:101FF000809195028F5F8F7320919602821741F036
:10200000E0919502F0E0E458FD4F958F80939502A2
:10201000FF91EF919F918F912F910F900FBE0F9095
:102020001F9018958081F4CF1F920F920FB60F92D8
:1020300011242F933F938F939F93AF93BF938091DE
:10204000020290910302A0910402B0910502309126
:10205000FC0123E0230F2D3758F50196A11DB11D7A
:102060002093FC018093020290930302A093040248
:10207000B09305028091FD019091FE01A091FF01B6
:10208000B09100020196A11DB11D8093FD019093B6
:10209000FE01A093FF01B0930002BF91AF919F9109
:1020A0008F913F912F910F900FBE0F901F90189519
:1020B00026E8230F0296A11DB11DD2CF1F920F92C9
:1020C0000FB60F9211242F933F934F935F936F930B
:1020D0007F938F939F93AF93BF93EF93FF938091E1
:1020E000B900887F803609F44AC0F0F5883209F4D7
:1020F000A7C018F5803109F49BC0B8F4882309F40F
:10210000F9C0883009F494C0FF91EF91BF91AF916D
:102110009F918F917F916F915F914F913F912F91FF
:102120000F900FBE0F901F901895883109F488C04A
:10213000803251F78093500214C0803409F49DC05E
:1021400040F48033B9F38833F9F68093500285EC7C
:10215000B0C0803509F485C0883509F496C088344C
:1021600099F60E94840FD0CF883909F48CC038F5D5
:10217000883729F050F4883611F0803729F683E04B
:10218000809352021092FB0157C0883809F47BC03B
:10219000803919F0803809F0B7CF8091FB01803287
:1021A00008F071C0E091FB0181E08E0F8093FB018C
:1021B0008091BB00F0E0E552FE4F80833DC0803B44
:1021C00039F0E0F4803A09F479C0883A09F09CCFFC
:1021D00084E0809352021092DA011092D901E091CA
:1021E0000802F091090209958091D90181110FC06F
:1021F00081E08093D9011092B90109C0803C09F4B3
:10220000A6CF883C09F4A3CF883B09F07DCFE091AD
:10221000DA0181E08E0F8093DA01F0E0E754FE4F9F
:1022200080818093BB009091DA018091D90129C00F
:1022300080912D028093BB0085EC8093BC0064CF1D
:1022400090914F0280914E02981758F5E0914F02FD
:1022500081E08E0F80934F02F0E0E25DFD4F8081C0
:10226000E9CFE0914F0281E08E0F80934F02809181
:10227000BB00F0E0E25DFD4F808390914F028091C2
:102280004E029817C8F285E8D8CFE0914F0281E05E
:102290008E0F80934F028091BB00F0E0E25DFD4F16
:1022A00080838091510281115CCF81E080932C0268
:1022B00084EA8093BC001092520226CF85EC809372
:1022C000BC00109252028091FB01803230F4E09108
:1022D000FB01F0E0E552FE4F10826091FB0170E0DF
:1022E000E0910602F09107028BED91E009951092C2
:1022F000FB010ACF1092500234CFCF93DF93ECE76B
:10230000F2E01382128248EE53E060E070E0448312
:1023100055836683778382E191E09183808385ECA6
:1023200090E09587848784EC90E09787868780EC9F
:1023300090E0918B808B81EC90E0938B828B82EC90
:1023400090E0958B848B86EC90E0978B868B118E3A
:10235000128E138E148EACE2B3E013961C921E9272
:10236000129714964D935D936D937C93179784E227
:1023700091E011969C938E93E5E6F3E0138212822E
:1023800082E591E0918380838FE3848384E1818778
:1023900084E082871386C8E3D3E01B821A821D8201
:1023A0001C821B861C861D861E861BA61CA6B98346
:1023B000A88386E090E00E94E020FC0184E491E0A4
:1023C0009183808388E191E093838283D583C48362
:1023D000FF83EE8386E090E00E94E020FC0186E32C
:1023E00091E09183808313821282D583C483F9871D
:1023F000E887A9E1B3E088E015968C9315978BE008
:1024000016968C931697E2E3F2E0E4911796EC931C
:102410001797EEE1F2E0E4911896EC93189740E8F4
:102420005EE360E070E01D964D935D936D937C9349
:102430005097DF91CF910895CF93DF93CDB7DEB75B
:10244000CA55D1400FB6F894DEBF0FBECDBF789409
:1024500084B5826084BD84B5816084BD85B58260A9
:1024600085BD85B5816085BD80916E00816080935A
:102470006E001092810080918100826080938100C3
:1024800080918100816080938100809180008160D3
:10249000809380008091B10084608093B10080912E
:1024A000B00081608093B00080917A008460809356
:1024B0007A0080917A00826080937A0080917A001D
:1024C000816080937A0080917A00806880937A009E
:1024D0001092C100E0918C02F0918D0282E0808325
:1024E000E0918802F09189021082E0918A02F091D5
:1024F0008B028FEC808310929402E0919002F09115
:10250000910286E08083E0918E02F0918F028081BB
:1025100080618083E0918E02F0918F0280818860DB
:102520008083E0918E02F0918F02808180688083A9
:10253000E0918E02F0918F0280818F7D80830E94D6
:10254000BE0410926A0380916F03823018F098E005
:1025500090936A0380936D0362E370E080E090E003
:102560000E944A036091700385E693E00E94AF06E3
:1025700068EE73E080E090E00E944A0360E385E645
:1025800093E00E946A0B0BE416E4C8010197F1F78F
:1025900060E385E693E00E946A0BC8010197F1F7BA
:1025A00060E385E693E00E946A0B83E592E0019781
:1025B000F1F760E285E693E00E946A0B60916A039E
:1025C000606240E085E693E00E94830B84E08093A4
:1025D0006B0340E06CE085E693E00E94830B40E0F3
:1025E00061E085E693E00E94830B0BE31FE1C801E5
:1025F0000197F1F782E080936C0340E066E085E6A6
:1026000093E00E94830B40E062E085E693E00E9445
:10261000830BC8010197F1F788E08093700360E0B5
:1026200085E693E00E94AF0660E080E00E949A0B8E
:1026300080E791E00E94290C61E080E00E949A0B03
:1026400086E791E00E94290C62E080E00E949A0BEC
:102650008CE791E00E94290C63E080E00E949A0BD5
:1026600082E891E00E94290C00913C0310913D0307
:102670000115110509F0F0C080913A0390913B03D8
:10268000009711F00E947C2186E090E00E94E020FB
:102690008C01809138039091390326E7D8012C935F
:1026A00012969C938E93119713961C92139780E227
:1026B00090E015969C938E93149710933B03009390
:1026C0003A030E94BE0481E0F8018383C8010E949E
:1026D000040681110AC18091430390914403A091A3
:1026E0004503B0914603892B8A2B8B2B41F044E0A4
:1026F00050E064E070E082E090E00E94090762E050
:1027000080911E030E94E9022FB7F8948091020283
:1027100090910302A0910402B09105022FBF805D49
:102720009740A109B1098093220390932303A093BA
:102730002403B093250387E380932B031E01FFEB53
:102740002F1AFEEF3F0A8091430390914403A0911A
:102750004503B0914603892B8A2B8B2B09F491C139
:1027600088E393E00E94D908C55BDE4F68837983D4
:102770008A839B83CB54D14080914303909144033F
:10278000A0914503B0914603892B8A2B8B2B09F42A
:1027900085C188E393E00E945E096B017C01809112
:1027A000430390914403A0914503B0914603892BC4
:1027B0008A2B8B2B09F479C188E393E00E945E0990
:1027C00020E030E048EC52E40E94E41C20E030E5D8
:1027D0004DE754E40E94E41C21E03EED42E45EE358
:1027E0000E94BC1E9B01AC0160E070E080E89FE3AA
:1027F0000E94771C20E03AE24DE257E40E941F1B42
:102800002B013C012FB7F8948091020290910302B2
:10281000A0910402B09105022FBF40912203509174
:10282000230360912403709125038C019D01041BF7
:10283000150B260B370BB901A801403D5740610528
:10284000710508F037C180912A038111F2C160E05F
:1028500070E080EC9FE728C2D8011B968C918F3FD7
:1028600041F061E00E94E90261E0F80183850E9485
:102870009D02D8018D919C91892B09F4C8C0FFB6A7
:10288000F89480910102811127C0E0E2F2E0849186
:10289000E4E3F2E09491E82FF0E0EE0FFF1FEE5F2B
:1028A000FD4FA591B491EC91E92321F461E08AE018
:1028B0000E949D0261E08AE00E94E9028CB580617D
:1028C0008CBD8CB580648CBD61E08DE00E94E90216
:1028D00061E08BE00E94E902809101028F5F8093AA
:1028E0000102FFBE81E0F801838F80913A0390914D
:1028F0003B03009709F4B6C020ED298321E030E0C6
:10290000AE014F5F5F4FBA010E944A07898190E094
:10291000B0E0A0E08093430390934403A093450369
:10292000B093460388359105A105B10509F0D3CED2
:1029300088E80E948B0890934C0380934B038AE8AD
:102940000E948B0890934E0380934D038CE80E9465
:102950008B089093500380934F038EE80E948B085E
:10296000909352038093510380E90E948B089093C7
:1029700054038093530382E90E948B08909356037B
:102980008093550384E90E948B08909358038093A9
:10299000570386E90E948B0890935A03809359034A
:1029A00088E90E948B0890935C0380935B038AE91B
:1029B0000E948B0890935E0380935D038CE90E94D4
:1029C0008B089093600380935F038EE90E948B08CD
:1029D0009093620380936103809143039091440339
:1029E000A0914503B0914603892B8A2B8B2B41F094
:1029F00050E040E070E060E085E090E00E94090770
:102A000064E670E080E090E00E944A0364CE61E0FA
:102A1000F80184850E94E902D8011A968C911A97D0
:102A20008B7FE1F460E01C968C910E949D02D8019E
:102A30001D968C918F3F41F061E00E94E90261E0B8
:102A4000F80185850E949D02D8011E968C918F3FCA
:102A500009F448CF60E00E94E90244CF61E0F80148
:102A60008485E3CF80ED898321E030E0AE014F5FC4
:102A70005F4FBA0180913C0390913D030E944D0449
:102A800045CF00E010E020EC3FE7C55BDE4F088358
:102A900019832A833B83CB54D1406ECEC12CD12CD9
:102AA000B0ECEB2EBFE7FB2E7ACE60E070E080EC5E
:102AB0009FE786CE8093220390932303A093240361
:102AC000B093250310921D0310921C0310921B0358
:102AD00010921A031092190362E080911E030E9463
:102AE000E90261E070E080E090E00E944A0361E06A
:102AF00080911E030E94E90260E080911E030E9403
:102B00009D0280911F0385518230D8F48BE291E1C0
:102B10000197F1F762E080911E030E94E902809123
:102B20002B0390E00E948501F89480E00E944D0103
:102B30006F3F7F4F8F4F9F4F59F410922A03789425
:102B400086CE64E170E080E090E00E944A03E2CF2C
:102B500081E00E944D016F3F7F4F8F4F9F4F69F380
:102B6000AE014F5F5F4F5A018A0180E00E944D0124
:102B7000D8016D937D938D939C93139781E00E9470
:102B80004D01F8016483758386839783085F1F4F27
:102B90002016310651F7789490E080E0D5010D9130
:102BA0001D912D913C91139714964D915D916D91CE
:102BB0007C9117970F3FBFEF1B072B073B0731F0A7
:102BC0004F3FEFEF5E076E077E0719F410922A035E
:102BD0003ECEFC01A3E0F595E795AA95E1F7E75E07
:102BE000FC4FA081AA0F0417150726073707F0F13D
:102BF000A0830196F8E0AF0EB11C8832910571F602
:102C000040911D032091190380911A03280F332747
:102C1000331F80911B03280F311D80911C03820FED
:102C2000932F911D99274817190681F681E080930B
:102C30002A0380911F038B3008F409CE8D30C0F039
:102C40008551823008F003CE6091190370911A0308
:102C500076276727762790E080E00E94BE1A2DEC49
:102C60003CEC4CEC5DE30E941F1B1EC0A160C0CF7A
:102C700060911A0370E090E080E00E94C01A2DEC91
:102C80003CEC4CEC5DE30E941F1B4B015C0160912E
:102C9000190370E090E080E00E94C01A9B01AC0133
:102CA000C501B4010E94781C0E94901DC15BDE4FDB
:102CB000688379838A839B83CF54D14001E4009356
:102CC0007C0080917A00806480937A0080917A0001
:102CD00086FDFCCF2091780030917900ACE9BFEF00
:102CE0000E947F1F2FEF33E040E050E00E94DD1B89
:102CF000CD5ADE4F288339834A835B83C355D14045
:102D00002C593F4F4F4F5F4FC95BDE4F28833983AC
:102D10004A835B83C754D140C301B201905820E07D
:102D200030EE46EF55E40E94E41C0E945E1DC95A35
:102D3000DE4F688379838A839B83C755D14020E027
:102D400030E048EC52E4C701B6010E94E41C4B019C
:102D50005C012AE939E94AEC52E4C95ADE4F68813C
:102D600079818A819B81C755D1400E941F1B9B019D
:102D7000AC01C501B4010E94771C4B015C01C55B2D
:102D8000DE4F488159816A817B81CB54D140CE018D
:102D900001960E94BD0D68E871E0C1010E94330EEA
:102DA000BE016F5F7F4FC1010E94690D0E940C0D33
:102DB000C1010E94350DCE0101960E94350DB7016B
:102DC000A601CE0101960E94BD0D6DE871E0C10122
:102DD0000E94330EBE016F5F7F4FC1010E94690DDB
:102DE0000E940C0DC1010E94350DCE0101960E947A
:102DF000350DB301A201CE0101960E94BD0D62E91D
:102E000071E0C1010E94330EBE016F5F7F4FC101AF
:102E10000E94690D0E940C0DC1010E94350DCE016A
:102E200001960E94350DC15BDE4F68817981CF54D8
:102E3000D140CE0101960E94FB0D67E971E0C1010E
:102E40000E94330EBE016F5F7F4FC1010E94690D6A
:102E50000E940C0DC1010E94350DCE0101960E9409
:102E6000350DC95BDE4F68817981C754D140CE01F1
:102E700001960E94FB0D6CE971E0C1010E94330EC6
:102E8000BE016F5F7F4FC1010E94690D0E940C0D52
:102E9000C1010E94350DCE0101960E94350DB5018C
:102EA000A401CE0101960E94BD0D62EA71E0C1014C
:102EB0000E94330EBE016F5F7F4FC1010E94690DFA
:102EC0000E940C0DC1010E94350DCE0101960E9499
:102ED000350D60E085E00E949A0B42E0C55BDE4F55
:102EE000688179818A819B81CB54D1400E942E0CCC
:102EF00087EA91E00E94290C61E085E00E949A0B2C
:102F000042E0C701B6010E942E0C8AEA91E00E94BD
:102F1000290C62E085E00E949A0B42E0C301B201F5
:102F20000E942E0C8DEA91E00E94290C63E085E05E
:102F30000E949A0BC15BDE4F28813981CF54D1406A
:102F4000B901330F880B990B41E00E94E30B8FEA24
:102F500091E00E94290C63E08AE00E949A0B81EBC9
:102F600091E00E94290CC95BDE4F88819981AA817A
:102F7000BB81C754D140B7FF30C041E06DE285E668
:102F800093E00E94830B6CE97FEF8FEF9FEFCD5AA8
:102F9000DE4F088119812A813B81C355D140601BD6
:102FA000710B820B930B4AE00E94E30B8FEA91E0D6
:102FB0000E94290C68EE73E080E090E00E944A03D2
:102FC00020E030E0232B09F4BECB0E94FA018823D5
:102FD00009F4B9CB0E940000B6CB4AE0C95BDE4FD2
:102FE000688179818A819B81C754D140DDCFCF939D
:102FF000DF93C0913C03D0913D03209749F08A8133
:103000009B81009711F00E947C21CE010E947C21BF
:1030100080913A0390913B03009711F00E947C212C
:1030200080913E0390913F03009739F0DC01ED91D0
:10303000FC910280F381E02D0995809140039091ED
:103040004103009749F0DC01ED91FC910280F3818E
:10305000E02DDF91CF910994DF91CF910895EF9208
:103060000F931F93CF93DF93E80134E047FD34E1E2
:10307000042E000C550B57FF03C051954195510983
:10308000E32E022F242FAE010E947218CE01DF9191
:10309000CF911F910F91EF900895BB274A3031F4E3
:1030A000992322F4BDE2909581959F4F0C94591875
:1030B000BB27FB015527AA27880F991FAA1FA41712
:1030C00010F0A41B83955051B9F7A05DAA3308F006
:1030D000A95DA193009779F7B111B1931192CB013A
:1030E0000C94A91AA9E0B0E0E8E7F8E10C94151CEB
:1030F0006A01F22EB02E102FFBE3AF2EA01608F4BB
:103100001BE31F5F012F27E0AE014F5F5F4F0E945F
:10311000D119BC018981982F9970913009F43FC071
:103120009BE2E1FC04C09E2D9170E0FC3AC05E2D54
:103130005071E82FE87083FF46C084E0911101C010
:1031400083E0EF2DE81B8F1508F0E0E0D6018E2F0D
:1031500020E2552351F1992329F0D6019C93C60111
:1031600001966C0196012D5F3F4FE2FE24C08EE474
:10317000D6018C9391E411969C93119712968C939F
:10318000D9018E2F90E281111BC0E20FF32FF11DA8
:1031900010828EEF9FEF2996ECE00C94311C9DE29B
:1031A000C6CF90E2C4CF2D9381508111FCCFCE0EBB
:1031B000D11CE0E0D0CF8EE6D6018C9391E6DBCF38
:1031C0009D938150E0CF482F447082FF3DC084E042
:1031D000911101C083E08F1510F4EF2DE81BD6018B
:1031E0008E2F20E2552309F1992329F0D6019C93D3
:1031F000C60101966C0196012D5F3F4FE2FE1BC098
:1032000089E4D6018C938EE411968C93119786E411
:1032100012968C93D9018E2F90E2882309F4B5CFB2
:103220009D938150FACF2D9381508111FCCFCE0E0A
:10323000D11CE0E0D9CF89E6D6018C938EE61196B9
:103240008C93119786E6E4CF9B0177FF02C030E0B4
:1032500020E0A1E0B0E0911102C0B0E0A0E0F901EF
:103260003196AE0FBF1F8B2C912CBB2009F461C08F
:103270005401EFEFAE1ABE0AAA0DBB1DFA161B06CB
:1032800019F014F04F2D4A1B511188C0E3FC59C0AE
:103290007601A42FB0E2A1114FC0C40ED11C992316
:1032A00009F45BC040E0D6011196F60190836D01F0
:1032B000552309F448C0012F060F9A81582F5071E9
:1032C00084FF03C0913309F4015010160CF047C07D
:1032D000093008F008E0EEE2FE2E5B01A01AB1080A
:1032E00085019194819491082F3F320729F4D601EA
:1032F000FC92F60131966F016217730794F1021781
:1033000013077CF5DB01A21BB30BAA24A394B12CF9
:10331000AC0EBD1EAA0DBB1D11968C91215031091A
:10332000D601119628153905F4F0F60180836D0158
:10333000DBCFB12CA12CA0CFF701B1937F01A1501D
:10334000AACF9111B0CFD601942F50E302C05D9364
:1033500091509111FCCFC40ED11C40E0ACCF01E0E4
:10336000BACF80E3DBCF6217730731F4963388F46A
:10337000953311F4552369F0F6018083FD01842F04
:1033800090E2811108C0A40FB11D1C9290E080E072
:1033900002CF81E3F1CF91938150F3CF911183CF8D
:1033A0008ACF283008F027E03327DA01990F311D42
:1033B00087FD916000966105710539F432602E5FDA
:1033C0003D9330E32A95E1F708959F3F30F0803830
:1033D0007105610509F03C5F3C5F3D93913008F059
:1033E0008068911DDF93CF931F930F93FF92EF920D
:1033F000192F987F9695E92F96959695E90FFF27B7
:10340000EC5BFE4F99273327EE24FF24A701E70149
:1034100005900894079428F4360FE71EF81E491FFC
:10342000511D660F771F881F991F0694A1F70590FD
:10343000079428F4E70EF81E491F561FC11D770F89
:10344000881F991F661F0694A1F70590079428F41A
:10345000F80E491F561FC71FD11D880F991F661FE1
:10346000771F0694A1F70590079420F4490F561F83
:10347000C71FD81F990F661F771F881F0694A9F7CB
:1034800084911095177041F0D695C795579547953B
:10349000F794E7941A95C1F7EAEEF0E06894159076
:1034A000159135916591959105907FE27395E1189D
:1034B000F10A430B560BC90BD009C0F7E10CF11E02
:1034C000431F561FC91FD01D7EF4703311F48A9517
:1034D000E6CFE894015030F0080F0AF400270217F5
:1034E00008F4202F2395022F7A3328F079E37D9377
:1034F0002A95E9F710C07D932A9589F60694979549
:103500006795379517951794E118F10A430B560BF9
:10351000C90BD00998F023957E9173957A3308F002
:1035200070E37C932013B8F77E9170617D9330F047
:10353000839571E37D9370E32A95E1F71124EF9071
:10354000FF900F911F91CF91DF91992787FD909563
:103550000895DC01FC01672F71917723E1F7329721
:1035600004C07C916D9370836291AE17BF07C8F35E
:1035700008950E94FB1A08F481E00895E89409C0B8
:1035800097FB3EF490958095709561957F4F8F4F96
:103590009F4F9923A9F0F92F96E9BB279395F695AC
:1035A000879577956795B795F111F8CFFAF4BB0F2A
:1035B00011F460FF1BC06F5F7F4F8F4F9F4F16C08E
:1035C000882311F096E911C0772321F09EE8872F18
:1035D000762F05C0662371F096E8862F70E060E0D4
:1035E0002AF09A95660F771F881FDAF7880F96954D
:1035F000879597F90895990F0008550FAA0BE0E8F1
:10360000FEEF16161706E807F907C0F012161306A4
:10361000E407F50798F0621B730B840B950B39F4E4
:103620000A2661F0232B242B252B21F408950A264A
:1036300009F4A140A6958FEF811D811D08950E9478
:10364000321B0C94A31B0E94951B38F00E949C1BFC
:1036500020F0952311F00C948C1B0C94921B1124D8
:103660000C94D71B0E94B41B70F3959FC1F3950F68
:1036700050E0551F629FF001729FBB27F00DB11DF6
:10368000639FAA27F00DB11DAA1F649F6627B00D86
:10369000A11D661F829F2227B00DA11D621F739F6F
:1036A000B00DA11D621F839FA00D611D221F749F7D
:1036B0003327A00D611D231F849F600D211D822FC4
:1036C000762F6A2F11249F5750409AF0F1F08823EB
:1036D0004AF0EE0FFF1FBB1F661F771F881F915018
:1036E0005040A9F79E3F510580F00C948C1B0C9420
:1036F000D71B5F3FE4F3983ED4F3869577956795A3
:10370000B795F795E7959F5FC1F7FE2B880F911D41
:103710009695879597F9089597F99F6780E870E0E7
:1037200060E008959FEF80EC089500240A94161637
:10373000170618060906089500240A94121613069F
:10374000140605060895092E0394000C11F488232D
:1037500052F0BB0F40F4BF2B11F460FF04C06F5F49
:103760007F4F8F4F9F4F089557FD9058440F551F1F
:1037700059F05F3F71F04795880F97FB991F61F0F3
:103780009F3F79F087950895121613061406551F6A
:10379000F2CF4695F1DF08C0161617061806991FD6
:1037A000F1CF86957105610508940895E894BB27CB
:1037B00066277727CB0197F90895052E97FB1EF40E
:1037C00000940E94F41B57FD07D00E94461C07FC82
:1037D00003D04EF40C94F41B5095409530952195F0
:1037E0003F4F4F4F5F4F089590958095709561952D
:1037F0007F4F8F4F9F4F08950E94681CA59F900D8B
:10380000B49F900DA49F800D911D11240895B7FFC2
:103810000C94FC1B0E94FC1B821B930B08952F929F
:103820003F924F925F926F927F928F929F92AF9250
:10383000BF92CF92DF92EF92FF920F931F93CF939D
:10384000DF93CDB7DEB7CA1BDB0B0FB6F894DEBF34
:103850000FBECDBF09942A88398848885F846E845A
:103860007D848C849B84AA84B984C884DF80EE80A4
:10387000FD800C811B81AA81B981CE0FD11D0FB6AD
:10388000F894DEBF0FBECDBFED010895A1E21A2E60
:10389000AA1BBB1BFD010DC0AA1FBB1FEE1FFF1FF4
:1038A000A217B307E407F50720F0A21BB30BE40B44
:1038B000F50B661F771F881F991F1A9469F760958B
:1038C0007095809590959B01AC01BD01CF01089545
:1038D000A29FB001B39FC001A39F700D811D112451
:1038E000911DB29F700D811D1124911D0895505896
:1038F000BB27AA270E948F1C0C94A31B0E94951B18
:1039000038F00E949C1B20F039F49F3F19F426F4F4
:103910000C94921B0EF4E095E7FB0C948C1BE92FA2
:103920000E94B41B58F3BA17620773078407950700
:1039300020F079F4A6F50C94D61B0EF4E0950B2E2E
:10394000BA2FA02D0B01B90190010C01CA01A001F1
:103950001124FF27591B99F0593F50F4503E68F14C
:103960001A16F040A22F232F342F4427585FF3CF8D
:10397000469537952795A795F0405395C9F77EF45E
:103980001F16BA0B620B730B840BBAF09150A1F0A7
:10399000FF0FBB1F661F771F881FC2F70EC0BA0F2D
:1039A000621F731F841F48F4879577956795B795B5
:1039B000F7959E3F08F0B0CF9395880F08F09927B0
:1039C000EE0F9795879508950E94F81C0C94A31B01
:1039D0000E949C1B58F00E94951B40F029F45F3F09
:1039E00029F00C948C1B51110C94D71B0C94921B36
:1039F0000E94B41B68F39923B1F3552391F3951BEF
:103A0000550BBB27AA2762177307840738F09F5FFF
:103A10005F4F220F331F441FAA1FA9F335D00E2E6C
:103A20003AF0E0E832D091505040E695001CCAF7D9
:103A30002BD0FE2F29D0660F771F881FBB1F26179C
:103A400037074807AB07B0E809F0BB0B802DBF0173
:103A5000FF2793585F4F3AF09E3F510578F00C9442
:103A60008C1B0C94D71B5F3FE4F3983ED4F38695F0
:103A700077956795B795F7959F5FC9F7880F911D63
:103A80009695879597F90895E1E0660F771F881F4F
:103A9000BB1F621773078407BA0720F0621B730B02
:103AA000840BBA0BEE1F88F7E095089529F416F001
:103AB0000C948C1B0C94D61B0C94921B0E94BC1B68
:103AC000A8F39638A0F707F80F92E8942BE33AEAA8
:103AD00048EB5FE70E94351B0F920F920F924DB794
:103AE0005EB70F920E94881EE8E6F0E00E941A1E60
:103AF0004F915F91EF91FF91E595EE1FFF1F49F008
:103B0000FE57E0684427EE0F441FFA95E1F7419510
:103B1000550B0E94521E0F9007FE0C94461E0895EE
:103B20000E94971D6894B1110C94D71B08950E94B0
:103B3000BC1B88F09F5798F0B92F9927B751B0F068
:103B4000E1F0660F771F881F991F1AF0BA95C9F721
:103B500014C0B13091F00E94D61BB1E008950C94CE
:103B6000D61B672F782F8827B85F39F0B93FCCF381
:103B7000869577956795B395D9F73EF4909580959E
:103B8000709561957F4F8F4F9F4F089597FB16F467
:103B90000E940A1E0C94CD1DE894F92F96EBFF238A
:103BA00081F0121613061406440B9395F69587952B
:103BB0007795679557954040FF23B9F71BC0992724
:103BC0000895882351F49850D2F7872B762F652FCC
:103BD000542F432F322F20E0B1F312161306140690
:103BE000440B88233AF09A95440F551F661F771FA0
:103BF000881FCAF755234AF4440F551F11F460FF7C
:103C000004C06F5F7F4F8F4F9F4F880F96958795AA
:103C100097F9089590958095709560955095409589
:103C2000309521953F4F4F4F5F4F6F4F7F4F8F4FD5
:103C30009F4F0895DF93CF931F930F93FF92EF92BF
:103C4000DF927B018C01689406C0DA2EEF010E949E
:103C5000321BFE01E894A59125913591459155912E
:103C6000A6F3EF010E948F1CFE019701A801DA94D0
:103C700069F7DF90EF90FF900F911F91CF91DF9147
:103C800008950E94FB1A08F48FEF08959B01AC0180
:103C900060E070E080E89FE30C94E41C0C948C1BC3
:103CA0000C94111F0E94BC1BD8F39923C9F3940FE5
:103CB000511DA3F39150504094F059F0882332F0F5
:103CC000660F771F881F91505040C1F79E3F5105E6
:103CD0002CF7880F911D9695879597F908955F3F6A
:103CE000ACF0983E9CF0BB27869577956795B79585
:103CF00008F4B1609395C1F7BB0F58F711F460FF5A
:103D0000E8CF6F5F7F4F8F4F9F4FE3CF0C94D71B50
:103D1000FA01DC01AA0FBB1F9B01AC01BF5728F4BD
:103D2000222733274427507820C0B75190F4AB2F77
:103D30000024469537952795011CA395D2F30020C2
:103D400071F0220F331F441FB395DAF30ED00C9499
:103D5000771C61307105A0E88A07B94630F49B01F1
:103D6000AC016627772788279078309621F020834A
:103D70003183428353830895FA01EE0FFF1F30967B
:103D800021053105A1F16115710561F48038BFE3AA
:103D90009B0749F168949038810561F08038BFEF46
:103DA0009B0741F099234AF5FF3FE10531052105C5
:103DB00019F1E8940894E795D901AA2329F4AB2FC7
:103DC000BE2FF85FD0F310C0FF5F70F4A695E0F748
:103DD000F73950F019F0FF3A38F49F779F930DD0E0
:103DE0000F9007FC9058089546F00C94921B60E0E9
:103DF00070E080E89FE308954FE79F775F934F93CC
:103E00003F932F930E94271F2F913F914F915F91D6
:103E10000E941F1B0C945E1D0E94FB1A880B990BBD
:103E200008959F3F31F0915020F4879577956795DD
:103E3000B795880F911D9695879597F9089516F077
:103E40000C94111F0C94921B68940C948C1B0E9470
:103E5000BC1BA8F39923C1F3AEF3DF93CF931F9359
:103E60000F93FF92C92FDD2788232AF02197660F31
:103E7000771F881FDAF720E030E040E85FEB9FE330
:103E8000883920F0803E38F021968F770E94781C88
:103E9000E0E9F0E004C00E94781CEDEBF0E00E9445
:103EA0001A1E8B01BE01EC01FB2E6F57710975952F
:103EB000771F880B990B0E94C01A28E132E741E373
:103EC0005FE30E94321BAF2D9801AE01FF900F916E
:103ED0001F91CF91DF910E948F1C0C94A31BDB01DB
:103EE0008F939F930E94FC1BBF91AF91A29F800D67
:103EF000911DA39F900DB29F900D112408950E94D3
:103F0000681C332312F48A1B9B0B0C94891F0E949C
:103F1000681CB7FF0895821B930B0895DF93CF931E
:103F20001F930F939A9DF02D219FF00D8B9DF00D07
:103F30008A9DE02DF10D039FF00D029FE00DF11D14
:103F40004E9DE00DF11D5E9DF00D4F9DF00D7F9398
:103F50006F93BF92AF925F934F93D5010E94681CFD
:103F60008B01AC01D7010E94681CEB01E80FF91F1F
:103F7000D6010E94DD1F2F913F91D6010E94681C3F
:103F8000C60FD71FE81FF91FAF91BF910E94DD1F19
:103F90002F913F910E94681CC60FD71FE81FF91F81
:103FA000D6010E94681CE60FF71F9801BE01CF01E1
:103FB0000F911F91CF91DF9108950E94681C460FC9
:103FC000571FC81FD91F08F431960895689401C07F
:103FD000E894F92FF12B12F00C941A20A0E0B0E035
:103FE000E4EFFFE10C94151C092E059422F40E94C5
:103FF0007620112392F4F0E80F26FFEFE094F0947E
:1040000000951095B094C094D094A194BF0ACF0AA3
:10401000DF0AEF0AFF0A0F0B1F0B0E94252007FC87
:104020000E947620CDB7DEB7ECE00C94311C68948A
:1040300001C0E8948F929F92CF93DF930E94252036
:10404000DF91CF919F908F90089588249924F40157
:10405000E401B0E49F93AA279A158B049C04ED0514
:10406000FE05CF05D007A10798F4AD2FDC2FCF2F89
:10407000FE2FE92D982C892E982F872F762F652FCC
:10408000542F432F322F2227B85031F7BF9127C02A
:104090001B2EBF91BB27220F331F441F551F661FC6
:1040A000771F881F991F881C991CEE1FFF1FCC1FAC
:1040B000DD1FAA1FBB1F8A149B04EC05FD05CE055E
:1040C000DF05A007B10748F08A189B08EC09FD0935
:1040D000CE09DF09A00BB10B21601A94E1F62EF492
:1040E0009401AF01BE01CD01000C0895609570955B
:1040F0008095909530954095509521953F4F4F4F25
:104100005F4F6F4F7F4F8F4F9F4F0895002E0830A6
:1041100090F0982F872F762F652F542F432F322F13
:1041200022270850F4CF220F331F441F551F661F4C
:10413000771F881F991F0A95B2F7002D089597FDE4
:104140001094002E083098F00850232F342F452F5C
:10415000562F672F782F892F912DF4CF159497958F
:1041600087957795679557954795379527950A953C
:10417000AAF71124002D08952A0D3B1D4C1D5D1D2D
:104180006E1D7F1D801F911F08952A193B094C0940
:104190005D096E097F09800B910B08950024A7FD2E
:1041A00000942A173005400550056005700580050C
:1041B00090050895EE0FFF1F0590F491E02D0994EE
:1041C0000F931F93CF93DF938230910510F482E019
:1041D00090E0E0917303F091740330E020E0B0E0F0
:1041E000A0E0309799F42115310509F44AC0281B45
:1041F000390B24303105D8F58A819B816115710511
:1042000089F1FB0193838283FE0111C040815181BA
:104210000281138148175907E0F04817590799F4AC
:10422000109761F012960C93129713961C93329686
:10423000CF01DF91CF911F910F91089500937303E8
:1042400010937403F4CF2115310551F04217530731
:1042500038F0A901DB019A01BD01DF01F801C1CFEE
:10426000EF01F9CF9093740380937303CDCFFE01D8
:10427000E20FF31F819391932250310939832883F0
:10428000D7CF2091710330917203232B41F42091F9
:104290000201309103013093720320937103209146
:1042A0000001309101012115310541F42DB73EB7D0
:1042B0004091040150910501241B350BE0917103DD
:1042C000F0917203E217F307A0F42E1B3F0B28179F
:1042D000390778F0AC014E5F5F4F2417350748F07F
:1042E0004E0F5F1F5093720340937103819391931C
:1042F0009FCFF0E0E0E09CCFCF93DF930097E9F011
:10430000FC01329713821282A0917303B09174035F
:10431000ED0130E020E01097A1F420813181820F7F
:10432000931F20917103309172032817390709F008
:1043300061C0F0937203E0937103DF91CF91089510
:10434000EA01CE17DF07E8F54A815B819E0141153E
:104350005105B1F7E901FB83EA8349915991C40FF3
:10436000D51FEC17FD0761F4808191810296840FBF
:10437000951FE90199838883828193819B838A8336
:10438000F0E0E0E012968D919C9113970097B9F5BB
:104390002D913C911197CD010296820F931F209190
:1043A0007103309172032817390739F6309751F5A8
:1043B0001092740310927303B0937203A09371036D
:1043C000BCCFD383C28340815181840F951FC8170E
:1043D000D90761F44E5F5F4F88819981480F591F5B
:1043E000518340838A819B81938382832115310588
:1043F00009F0B0CFF0937403E09373039ECFFD01F7
:10440000DC01C0CF13821282D7CFB0E0A0E0EBE096
:10441000F2E20C94111C8C01009751F4CB010E9424
:10442000E0208C01C801CDB7DEB7E0E10C942D1C73
:10443000FC01E60FF71F9C0122503109E217F30738
:1044400008F49DC0D901CD91DC911197C617D7070B
:1044500098F0C530D10530F3CE0104978617970741
:1044600008F3C61BD70B2297C193D1936D937C930E
:10447000CF010E947C21D6CF5B01AC1ABD0A4C0152
:104480008C0E9D1EA0917303B0917403512C412C8E
:10449000F12CE12C109731F580917103909172030A
:1044A0008815990509F05CC04616570608F058C0F3
:1044B0008091000190910101009741F48DB79EB762
:1044C0004091040150910501841B950BE817F907F1
:1044D00008F055C0F0937203E0937103F901718302
:1044E0006083A0CF8D919C91119712966C9012973A
:1044F00013967C901397A815B90559F56C0142E005
:10450000C40ED11CCA14DB0420F1AC014A195B09AA
:10451000DA011296159780F062827382518340838C
:10452000D9016D937C93E114F10471F0D7011396D6
:10453000FC93EE93129776CF22968C0F9D1FF90174
:1045400091838083F301EFCFF0937403E0937303BF
:1045500069CF4816590608F42C017D01D3019ACF82
:10456000CB010E94E0207C01009749F0AE01B80128
:104570000E94C222C8010E947C21870153CF10E013
:1045800000E050CFFB01DC0102C001900D924150D0
:104590005040D8F70895FB01DC0101900D920020F6
:1045A000E1F70895FB01DC014150504048F00190D3
:1045B0000D920020C9F701C01D9241505040E0F714
:1045C000089511E0C0E2D1E004C0FE010E94DA20AB
:0C45D0002196C132D107C9F7F894FFCF43
:1045DC00000075038000000040001400540000002F
:1045EC00000030029001BD017D02EE01CC01E00122
:1045FC000000000080065306C30629064C06390647
:10460C002A060000000077043F0DC606440EE60E95
:10461C000000000077043D0DC606980E350F000013
:10462C000000CE0B9001C30678046E616E00696EBB
:10463C0066006F7666000D0A00424D50323830002D
:10464C0054656D703A00507273723A00416C746428
:10465C003A00486D64743A0054656D700050727382
:10466C007200416C746400486D6474004C69676836
:10467C0074005072647400DF43005061006D0025BB
:08468C00004C696768743A00F4
:00000001FF
